{
  "contractName": "StreamManager",
  "abi": [
    {
      "constant": false,
      "inputs": [],
      "name": "renounceOwnership",
      "outputs": [],
      "payable": false,
      "stateMutability": "nonpayable",
      "type": "function"
    },
    {
      "constant": true,
      "inputs": [
        {
          "name": "",
          "type": "uint256"
        }
      ],
      "name": "requests",
      "outputs": [
        {
          "name": "approved",
          "type": "bool"
        },
        {
          "name": "refund",
          "type": "bool"
        },
        {
          "name": "ended",
          "type": "bool"
        },
        {
          "name": "client",
          "type": "address"
        },
        {
          "name": "stream",
          "type": "address"
        },
        {
          "name": "streamId",
          "type": "uint256"
        },
        {
          "name": "RTMP",
          "type": "string"
        }
      ],
      "payable": false,
      "stateMutability": "view",
      "type": "function"
    },
    {
      "constant": true,
      "inputs": [],
      "name": "owner",
      "outputs": [
        {
          "name": "",
          "type": "address"
        }
      ],
      "payable": false,
      "stateMutability": "view",
      "type": "function"
    },
    {
      "constant": true,
      "inputs": [],
      "name": "isOwner",
      "outputs": [
        {
          "name": "",
          "type": "bool"
        }
      ],
      "payable": false,
      "stateMutability": "view",
      "type": "function"
    },
    {
      "constant": false,
      "inputs": [
        {
          "name": "newOwner",
          "type": "address"
        }
      ],
      "name": "transferOwnership",
      "outputs": [],
      "payable": false,
      "stateMutability": "nonpayable",
      "type": "function"
    },
    {
      "inputs": [],
      "payable": false,
      "stateMutability": "nonpayable",
      "type": "constructor"
    },
    {
      "anonymous": false,
      "inputs": [
        {
          "indexed": true,
          "name": "client",
          "type": "address"
        },
        {
          "indexed": true,
          "name": "streamId",
          "type": "uint256"
        }
      ],
      "name": "StreamRequested",
      "type": "event"
    },
    {
      "anonymous": false,
      "inputs": [
        {
          "indexed": true,
          "name": "streamId",
          "type": "uint256"
        }
      ],
      "name": "StreamApproved",
      "type": "event"
    },
    {
      "anonymous": false,
      "inputs": [
        {
          "indexed": true,
          "name": "streamAddress",
          "type": "address"
        },
        {
          "indexed": true,
          "name": "streamId",
          "type": "uint256"
        }
      ],
      "name": "StreamCreated",
      "type": "event"
    },
    {
      "anonymous": false,
      "inputs": [
        {
          "indexed": true,
          "name": "validator",
          "type": "address"
        }
      ],
      "name": "ValidatorAdded",
      "type": "event"
    },
    {
      "anonymous": false,
      "inputs": [
        {
          "indexed": true,
          "name": "validator",
          "type": "address"
        }
      ],
      "name": "ValidatorRemoved",
      "type": "event"
    },
    {
      "anonymous": false,
      "inputs": [
        {
          "indexed": true,
          "name": "streamId",
          "type": "uint256"
        }
      ],
      "name": "RefundAllowed",
      "type": "event"
    },
    {
      "anonymous": false,
      "inputs": [
        {
          "indexed": true,
          "name": "streamId",
          "type": "uint256"
        }
      ],
      "name": "RefundRevoked",
      "type": "event"
    },
    {
      "anonymous": false,
      "inputs": [
        {
          "indexed": true,
          "name": "streamId",
          "type": "uint256"
        },
        {
          "indexed": true,
          "name": "chunkId",
          "type": "uint256"
        }
      ],
      "name": "InputChunkAdded",
      "type": "event"
    },
    {
      "anonymous": false,
      "inputs": [
        {
          "indexed": true,
          "name": "streamId",
          "type": "uint256"
        },
        {
          "indexed": true,
          "name": "caller",
          "type": "address"
        }
      ],
      "name": "StreamEnded",
      "type": "event"
    },
    {
      "anonymous": false,
      "inputs": [
        {
          "indexed": true,
          "name": "previousOwner",
          "type": "address"
        },
        {
          "indexed": true,
          "name": "newOwner",
          "type": "address"
        }
      ],
      "name": "OwnershipTransferred",
      "type": "event"
    },
    {
      "constant": false,
      "inputs": [
        {
          "name": "v",
          "type": "address"
        }
      ],
      "name": "addValidator",
      "outputs": [],
      "payable": false,
      "stateMutability": "nonpayable",
      "type": "function"
    },
    {
      "constant": false,
      "inputs": [
        {
          "name": "v",
          "type": "address"
        }
      ],
      "name": "removeValidator",
      "outputs": [],
      "payable": false,
      "stateMutability": "nonpayable",
      "type": "function"
    },
    {
      "constant": true,
      "inputs": [
        {
          "name": "v",
          "type": "address"
        }
      ],
      "name": "isValidator",
      "outputs": [
        {
          "name": "",
          "type": "bool"
        }
      ],
      "payable": false,
      "stateMutability": "view",
      "type": "function"
    },
    {
      "constant": false,
      "inputs": [
        {
          "name": "streamId",
          "type": "uint256"
        },
        {
          "name": "RTMP",
          "type": "string"
        },
        {
          "name": "bitrates",
          "type": "uint256[]"
        }
      ],
      "name": "requestStream",
      "outputs": [
        {
          "name": "",
          "type": "uint256"
        }
      ],
      "payable": false,
      "stateMutability": "nonpayable",
      "type": "function"
    },
    {
      "constant": false,
      "inputs": [
        {
          "name": "streamId",
          "type": "uint256"
        },
        {
          "name": "chunks",
          "type": "uint256[]"
        }
      ],
      "name": "approveStreamCreation",
      "outputs": [],
      "payable": false,
      "stateMutability": "nonpayable",
      "type": "function"
    },
    {
      "constant": false,
      "inputs": [
        {
          "name": "streamId",
          "type": "uint256"
        }
      ],
      "name": "createStream",
      "outputs": [
        {
          "name": "",
          "type": "address"
        }
      ],
      "payable": true,
      "stateMutability": "payable",
      "type": "function"
    },
    {
      "constant": false,
      "inputs": [
        {
          "name": "streamId",
          "type": "uint256"
        },
        {
          "name": "chunkId",
          "type": "uint256"
        }
      ],
      "name": "addInputChunkId",
      "outputs": [],
      "payable": false,
      "stateMutability": "nonpayable",
      "type": "function"
    },
    {
      "constant": false,
      "inputs": [
        {
          "name": "streamId",
          "type": "uint256"
        }
      ],
      "name": "endStream",
      "outputs": [],
      "payable": false,
      "stateMutability": "nonpayable",
      "type": "function"
    },
    {
      "constant": true,
      "inputs": [
        {
          "name": "streamId",
          "type": "uint256"
        }
      ],
      "name": "refundAllowed",
      "outputs": [
        {
          "name": "",
          "type": "bool"
        }
      ],
      "payable": false,
      "stateMutability": "view",
      "type": "function"
    },
    {
      "constant": false,
      "inputs": [
        {
          "name": "streamId",
          "type": "uint256"
        }
      ],
      "name": "allowRefund",
      "outputs": [],
      "payable": false,
      "stateMutability": "nonpayable",
      "type": "function"
    },
    {
      "constant": false,
      "inputs": [
        {
          "name": "streamId",
          "type": "uint256"
        }
      ],
      "name": "revokeRefund",
      "outputs": [],
      "payable": false,
      "stateMutability": "nonpayable",
      "type": "function"
    }
  ],
  "bytecode": "0x608060405234801561001057600080fd5b50336000806101000a81548173ffffffffffffffffffffffffffffffffffffffff021916908373ffffffffffffffffffffffffffffffffffffffff1602179055506000809054906101000a900473ffffffffffffffffffffffffffffffffffffffff1673ffffffffffffffffffffffffffffffffffffffff16600073ffffffffffffffffffffffffffffffffffffffff167f8be0079c531659141344cd1fd0a4f28419497f9722a3daafe3b4186f6b6457e060405160405180910390a3613c3a806100dc6000396000f300608060405260043610620000f7576000357c0100000000000000000000000000000000000000000000000000000000900463ffffffff1680630a8c4c1314620000fc5780630f5147171462000136578063225f6541146200017e57806340a141ff14620001ae5780634b51438c14620001f45780634d238c8e146200022457806350d55afc146200026a578063551479dd146200029a57806370bdecb614620002fc578063715018a6146200036f57806381d12c5814620003895780638562faa214620004c35780638da5cb5b14620005905780638f32d59b14620005ea578063f2fde38b146200061c578063facd743b1462000662575b600080fd5b3480156200010957600080fd5b50620001346004803603810190808035906020019092919080359060200190929190505050620006c0565b005b3480156200014357600080fd5b50620001646004803603810190808035906020019092919050505062000833565b604051808215151515815260200191505060405180910390f35b3480156200018b57600080fd5b50620001ac6004803603810190808035906020019092919050505062000860565b005b348015620001bb57600080fd5b50620001f2600480360381019080803573ffffffffffffffffffffffffffffffffffffffff16906020019092919050505062000948565b005b3480156200020157600080fd5b506200022260048036038101908080359060200190929190505050620009ba565b005b3480156200023157600080fd5b5062000268600480360381019080803573ffffffffffffffffffffffffffffffffffffffff16906020019092919050505062000aa2565b005b3480156200027757600080fd5b50620002986004803603810190808035906020019092919050505062000b14565b005b620002ba6004803603810190808035906020019092919050505062000cc7565b604051808273ffffffffffffffffffffffffffffffffffffffff1673ffffffffffffffffffffffffffffffffffffffff16815260200191505060405180910390f35b3480156200030957600080fd5b506200036d600480360381019080803590602001909291908035906020019082018035906020019080806020026020016040519081016040528093929190818152602001838360200280828437820191505050505050919291929050505062000ffe565b005b3480156200037c57600080fd5b5062000387620010f6565b005b3480156200039657600080fd5b50620003b760048036038101908080359060200190929190505050620011cb565b604051808815151515815260200187151515158152602001861515151581526020018573ffffffffffffffffffffffffffffffffffffffff1673ffffffffffffffffffffffffffffffffffffffff1681526020018473ffffffffffffffffffffffffffffffffffffffff1673ffffffffffffffffffffffffffffffffffffffff16815260200183815260200180602001828103825283818151815260200191508051906020019080838360005b838110156200048157808201518184015260208101905062000464565b50505050905090810190601f168015620004af5780820380516001836020036101000a031916815260200191505b509850505050505050505060405180910390f35b348015620004d057600080fd5b506200057a60048036038101908080359060200190929190803590602001908201803590602001908080601f01602080910402602001604051908101604052809392919081815260200183838082843782019150505050505091929192908035906020019082018035906020019080806020026020016040519081016040528093929190818152602001838360200280828437820191505050505050919291929050505062001310565b6040518082815260200191505060405180910390f35b3480156200059d57600080fd5b50620005a86200160e565b604051808273ffffffffffffffffffffffffffffffffffffffff1673ffffffffffffffffffffffffffffffffffffffff16815260200191505060405180910390f35b348015620005f757600080fd5b506200060262001637565b604051808215151515815260200191505060405180910390f35b3480156200062957600080fd5b5062000660600480360381019080803573ffffffffffffffffffffffffffffffffffffffff1690602001909291905050506200168e565b005b3480156200066f57600080fd5b50620006a6600480360381019080803573ffffffffffffffffffffffffffffffffffffffff169060200190929190505050620016b2565b604051808215151515815260200191505060405180910390f35b600080620006cd62001637565b1515620006d957600080fd5b600260008581526020019081526020016000209150600073ffffffffffffffffffffffffffffffffffffffff168260010160009054906101000a900473ffffffffffffffffffffffffffffffffffffffff1673ffffffffffffffffffffffffffffffffffffffff16141515156200074f57600080fd5b8160010160009054906101000a900473ffffffffffffffffffffffffffffffffffffffff1690508073ffffffffffffffffffffffffffffffffffffffff166363baa266846040518263ffffffff167c010000000000000000000000000000000000000000000000000000000002815260040180828152602001915050600060405180830381600087803b158015620007e657600080fd5b505af1158015620007fb573d6000803e3d6000fd5b5050505082847f79f21a91842ed307e9fade5e30c0d0322ee9f1f64d3918e3d8b2815f02ce85d660405160405180910390a350505050565b60006002600083815260200190815260200160002060000160019054906101000a900460ff169050919050565b6200086a62001637565b15156200087657600080fd5b600073ffffffffffffffffffffffffffffffffffffffff166002600083815260200190815260200160002060000160039054906101000a900473ffffffffffffffffffffffffffffffffffffffff1673ffffffffffffffffffffffffffffffffffffffff1614151515620008e957600080fd5b60016002600083815260200190815260200160002060000160016101000a81548160ff021916908315150217905550807f48030861b818deafd7def8853bcc8a6ec6bab746521a9546b79b8baab82dce6b60405160405180910390a250565b6200095262001637565b15156200095e57600080fd5b62000974816001620016d190919063ffffffff16565b8073ffffffffffffffffffffffffffffffffffffffff167fe1434e25d6611e0db941968fdc97811c982ac1602e951637d206f5fdda9dd8f160405160405180910390a250565b620009c462001637565b1515620009d057600080fd5b600073ffffffffffffffffffffffffffffffffffffffff166002600083815260200190815260200160002060000160039054906101000a900473ffffffffffffffffffffffffffffffffffffffff1673ffffffffffffffffffffffffffffffffffffffff161415151562000a4357600080fd5b60006002600083815260200190815260200160002060000160016101000a81548160ff021916908315150217905550807ff12d3e50d9ed05d035c02b9f29e1da20004bce112d4fbe2cc0f0ba272ee5d97760405160405180910390a250565b62000aac62001637565b151562000ab857600080fd5b62000ace8160016200178490919063ffffffff16565b8073ffffffffffffffffffffffffffffffffffffffff167fe366c1c0452ed8eec96861e9e54141ebff23c9ec89fe27b996b45f5ec388498760405160405180910390a250565b6000806002600084815260200190815260200160002091508160000160029054906101000a900460ff1615151562000b4b57600080fd5b62000b5562001637565b8062000bb057508160000160039054906101000a900473ffffffffffffffffffffffffffffffffffffffff1673ffffffffffffffffffffffffffffffffffffffff163373ffffffffffffffffffffffffffffffffffffffff16145b151562000bbc57600080fd5b8160010160009054906101000a900473ffffffffffffffffffffffffffffffffffffffff1690508073ffffffffffffffffffffffffffffffffffffffff1663bb57a5ed6040518163ffffffff167c0100000000000000000000000000000000000000000000000000000000028152600401600060405180830381600087803b15801562000c4857600080fd5b505af115801562000c5d573d6000803e3d6000fd5b5050505060018260000160026101000a81548160ff0219169083151502179055503373ffffffffffffffffffffffffffffffffffffffff16837fde05e689a2a03aa3267e2f457184c649b080aaa00013ed27d21b85bcb04901ff60405160405180910390a3505050565b60008060006002600085815260200190815260200160002091508160000160009054906101000a900460ff16151562000cff57600080fd5b3373ffffffffffffffffffffffffffffffffffffffff168260000160039054906101000a900473ffffffffffffffffffffffffffffffffffffffff1673ffffffffffffffffffffffffffffffffffffffff1614151562000d5e57600080fd5b833383600201846003018560050162000d76620019c8565b808681526020018573ffffffffffffffffffffffffffffffffffffffff1673ffffffffffffffffffffffffffffffffffffffff168152602001806020018060200180602001848103845287818154815260200191508054801562000dfa57602002820191906000526020600020905b81548152602001906001019080831162000de5575b5050848103835286818154815260200191508054801562000e3b57602002820191906000526020600020905b81548152602001906001019080831162000e26575b505084810382528581815460018160011615610100020316600290048152602001915080546001816001161561010002031660029004801562000ec25780601f1062000e965761010080835404028352916020019162000ec2565b820191906000526020600020905b81548152906001019060200180831162000ea457829003601f168201915b505098505050505050505050604051809103906000f08015801562000eeb573d6000803e3d6000fd5b5090508073ffffffffffffffffffffffffffffffffffffffff1663d0e30db0346040518263ffffffff167c01000000000000000000000000000000000000000000000000000000000281526004016000604051808303818588803b15801562000f5357600080fd5b505af115801562000f68573d6000803e3d6000fd5b5050505050808260010160006101000a81548173ffffffffffffffffffffffffffffffffffffffff021916908373ffffffffffffffffffffffffffffffffffffffff160217905550838173ffffffffffffffffffffffffffffffffffffffff167f1bd63527042f119292b792487cee2f3e2f788737aa8ce9c0b5e79a2e17bd6bab60405160405180910390a38092505050919050565b60006200100a62001637565b15156200101657600080fd5b600260008481526020019081526020016000209050600073ffffffffffffffffffffffffffffffffffffffff168160000160039054906101000a900473ffffffffffffffffffffffffffffffffffffffff1673ffffffffffffffffffffffffffffffffffffffff16141515156200108c57600080fd5b81816002019080519060200190620010a6929190620019d9565b5060018160000160006101000a81548160ff021916908315150217905550827f8fd81831397822207cf7571ac8b61f51ae7de628b05492a586bc63c3fd23bf8c60405160405180910390a2505050565b6200110062001637565b15156200110c57600080fd5b600073ffffffffffffffffffffffffffffffffffffffff166000809054906101000a900473ffffffffffffffffffffffffffffffffffffffff1673ffffffffffffffffffffffffffffffffffffffff167f8be0079c531659141344cd1fd0a4f28419497f9722a3daafe3b4186f6b6457e060405160405180910390a360008060006101000a81548173ffffffffffffffffffffffffffffffffffffffff021916908373ffffffffffffffffffffffffffffffffffffffff160217905550565b60026020528060005260406000206000915090508060000160009054906101000a900460ff16908060000160019054906101000a900460ff16908060000160029054906101000a900460ff16908060000160039054906101000a900473ffffffffffffffffffffffffffffffffffffffff16908060010160009054906101000a900473ffffffffffffffffffffffffffffffffffffffff1690806004015490806005018054600181600116156101000203166002900480601f016020809104026020016040519081016040528092919081815260200182805460018160011615610100020316600290048015620013065780601f10620012da5761010080835404028352916020019162001306565b820191906000526020600020905b815481529060010190602001808311620012e857829003601f168201915b5050505050905087565b6000606060008060008073ffffffffffffffffffffffffffffffffffffffff16600260008a815260200190815260200160002060000160039054906101000a900473ffffffffffffffffffffffffffffffffffffffff1673ffffffffffffffffffffffffffffffffffffffff161415156200138a57600080fd5b60008651141515156200139c57600080fd5b6000604051908082528060200260200182016040528015620013cd5781602001602082028038833980820191505090505b509350600092506000915060009050610120604051908101604052808415158152602001831515815260200182151581526020013373ffffffffffffffffffffffffffffffffffffffff168152602001600073ffffffffffffffffffffffffffffffffffffffff16815260200185815260200187815260200189815260200188815250600260008a815260200190815260200160002060008201518160000160006101000a81548160ff02191690831515021790555060208201518160000160016101000a81548160ff02191690831515021790555060408201518160000160026101000a81548160ff02191690831515021790555060608201518160000160036101000a81548173ffffffffffffffffffffffffffffffffffffffff021916908373ffffffffffffffffffffffffffffffffffffffff16021790555060808201518160010160006101000a81548173ffffffffffffffffffffffffffffffffffffffff021916908373ffffffffffffffffffffffffffffffffffffffff16021790555060a08201518160020190805190602001906200156f92919062001a2b565b5060c08201518160030190805190602001906200158e92919062001a2b565b5060e08201518160040155610100820151816005019080519060200190620015b892919062001a7d565b50905050873373ffffffffffffffffffffffffffffffffffffffff167fcf93cb8f3f726dd083e429df912bf338cc7f82cc3344b3ab5fa960ef0357e32160405160405180910390a3879450505050509392505050565b60008060009054906101000a900473ffffffffffffffffffffffffffffffffffffffff16905090565b60008060009054906101000a900473ffffffffffffffffffffffffffffffffffffffff1673ffffffffffffffffffffffffffffffffffffffff163373ffffffffffffffffffffffffffffffffffffffff1614905090565b6200169862001637565b1515620016a457600080fd5b620016af8162001838565b50565b6000620016ca8260016200193390919063ffffffff16565b9050919050565b600073ffffffffffffffffffffffffffffffffffffffff168173ffffffffffffffffffffffffffffffffffffffff16141515156200170e57600080fd5b6200171a828262001933565b15156200172657600080fd5b60008260000160008373ffffffffffffffffffffffffffffffffffffffff1673ffffffffffffffffffffffffffffffffffffffff16815260200190815260200160002060006101000a81548160ff0219169083151502179055505050565b600073ffffffffffffffffffffffffffffffffffffffff168173ffffffffffffffffffffffffffffffffffffffff1614151515620017c157600080fd5b620017cd828262001933565b151515620017da57600080fd5b60018260000160008373ffffffffffffffffffffffffffffffffffffffff1673ffffffffffffffffffffffffffffffffffffffff16815260200190815260200160002060006101000a81548160ff0219169083151502179055505050565b600073ffffffffffffffffffffffffffffffffffffffff168173ffffffffffffffffffffffffffffffffffffffff16141515156200187557600080fd5b8073ffffffffffffffffffffffffffffffffffffffff166000809054906101000a900473ffffffffffffffffffffffffffffffffffffffff1673ffffffffffffffffffffffffffffffffffffffff167f8be0079c531659141344cd1fd0a4f28419497f9722a3daafe3b4186f6b6457e060405160405180910390a3806000806101000a81548173ffffffffffffffffffffffffffffffffffffffff021916908373ffffffffffffffffffffffffffffffffffffffff16021790555050565b60008073ffffffffffffffffffffffffffffffffffffffff168273ffffffffffffffffffffffffffffffffffffffff16141515156200197157600080fd5b8260000160008373ffffffffffffffffffffffffffffffffffffffff1673ffffffffffffffffffffffffffffffffffffffff16815260200190815260200160002060009054906101000a900460ff16905092915050565b6040516120e28062001b2d83390190565b82805482825590600052602060002090810192821562001a18579160200282015b8281111562001a17578251825591602001919060010190620019fa565b5b50905062001a27919062001b04565b5090565b82805482825590600052602060002090810192821562001a6a579160200282015b8281111562001a6957825182559160200191906001019062001a4c565b5b50905062001a79919062001b04565b5090565b828054600181600116156101000203166002900490600052602060002090601f016020900481019282601f1062001ac057805160ff191683800117855562001af1565b8280016001018555821562001af1579182015b8281111562001af057825182559160200191906001019062001ad3565b5b50905062001b00919062001b04565b5090565b62001b2991905b8082111562001b2557600081600090555060010162001b0b565b5090565b90560060806040523480156200001157600080fd5b50604051620020e2380380620020e2833981018060405281019080805190602001909291908051906020019092919080518201929190602001805182019291906020018051820192919050505060006200006a62000277565b85600073ffffffffffffffffffffffffffffffffffffffff168173ffffffffffffffffffffffffffffffffffffffff1614151515620000a857600080fd5b806000806101000a81548173ffffffffffffffffffffffffffffffffffffffff021916908373ffffffffffffffffffffffffffffffffffffffff160217905550508660028190555033600160006101000a81548173ffffffffffffffffffffffffffffffffffffffff021916908373ffffffffffffffffffffffffffffffffffffffff16021790555082600390805190602001906200014992919062000293565b508460069080519060200190620001629291906200031a565b50600091505b8451821015620001c45760016005600087858151811015156200018757fe5b90602001906020020151815260200190815260200160002060006101000a81548160ff021916908315150217905550818060010192505062000168565b8360089080519060200190620001dc9291906200031a565b50600091505b6008805490508210156200026a57600181600001901515908115158152505080600760006008858154811015156200021657fe5b9060005260206000200154815260200190815260200160002060008201518160000160006101000a81548160ff021916908315150217905550602082015181600101559050508180600101925050620001e2565b5050505050505062000394565b6040805190810160405280600015158152602001600081525090565b828054600181600116156101000203166002900490600052602060002090601f016020900481019282601f10620002d657805160ff191683800117855562000307565b8280016001018555821562000307579182015b8281111562000306578251825591602001919060010190620002e9565b5b5090506200031691906200036c565b5090565b82805482825590600052602060002090810192821562000359579160200282015b82811115620003585782518255916020019190600101906200033b565b5b5090506200036891906200036c565b5090565b6200039191905b808211156200038d57600081600090555060010162000373565b5090565b90565b611d3e80620003a46000396000f300608060405260043610610154576000357c0100000000000000000000000000000000000000000000000000000000900463ffffffff168063109e94cf1461015957806312fa6feb146101b057806314cc12d9146101df5780631bb62fc41461024b57806328cc413a146102905780632f750f201461031f5780633fa911ae146103a4578063481c6a75146103d35780634c0b715c1461042a578063590e1ae314610479578063623722981461049057806363baa2661461051257806373f93b2a1461053f578063747f75891461056a5780637b40855d146105b5578063963dce43146106005780639ee2190514610645578063af640d0f146106d5578063bb57a5ed14610700578063bbe58b0c14610717578063bf032f531461074e578063c5d0b14c14610806578063c617519314610852578063d0e30db0146108be578063d78e647f146108c8578063fc1028bc146108ff575b600080fd5b34801561016557600080fd5b5061016e61092e565b604051808273ffffffffffffffffffffffffffffffffffffffff1673ffffffffffffffffffffffffffffffffffffffff16815260200191505060405180910390f35b3480156101bc57600080fd5b506101c5610953565b604051808215151515815260200191505060405180910390f35b3480156101eb57600080fd5b506101f4610966565b6040518080602001828103825283818151815260200191508051906020019060200280838360005b8381101561023757808201518184015260208101905061021c565b505050509050019250505060405180910390f35b34801561025757600080fd5b50610276600480360381019080803590602001909291905050506109be565b604051808215151515815260200191505060405180910390f35b34801561029c57600080fd5b506102cf6004803603810190808035906020019092919080359060200190929190803590602001909291905050506109de565b604051808473ffffffffffffffffffffffffffffffffffffffff1673ffffffffffffffffffffffffffffffffffffffff168152602001838152602001828152602001935050505060405180910390f35b34801561032b57600080fd5b506103546004803603810190808035906020019092919080359060200190929190505050610b13565b604051808473ffffffffffffffffffffffffffffffffffffffff1673ffffffffffffffffffffffffffffffffffffffff168152602001838152602001828152602001935050505060405180910390f35b3480156103b057600080fd5b506103b9610b9f565b604051808215151515815260200191505060405180910390f35b3480156103df57600080fd5b506103e8610ca6565b604051808273ffffffffffffffffffffffffffffffffffffffff1673ffffffffffffffffffffffffffffffffffffffff16815260200191505060405180910390f35b34801561043657600080fd5b5061045f6004803603810190808035906020019092919080359060200190929190505050610ccc565b604051808215151515815260200191505060405180910390f35b34801561048557600080fd5b5061048e610dae565b005b34801561049c57600080fd5b506104bb60048036038101908080359060200190929190505050610e7f565b6040518080602001828103825283818151815260200191508051906020019060200280838360005b838110156104fe5780820151818401526020810190506104e3565b505050509050019250505060405180910390f35b34801561051e57600080fd5b5061053d60048036038101908080359060200190929190505050610f97565b005b34801561054b57600080fd5b50610554611094565b6040518082815260200191505060405180910390f35b34801561057657600080fd5b506105b3600480360381019080803590602001909291908035906020019092919080359060200190929190803590602001909291905050506110a1565b005b3480156105c157600080fd5b506105ea6004803603810190808035906020019092919080359060200190929190505050611282565b6040518082815260200191505060405180910390f35b34801561060c57600080fd5b5061062b60048036038101908080359060200190929190505050611317565b604051808215151515815260200191505060405180910390f35b34801561065157600080fd5b5061065a611360565b6040518080602001828103825283818151815260200191508051906020019080838360005b8381101561069a57808201518184015260208101905061067f565b50505050905090810190601f1680156106c75780820380516001836020036101000a031916815260200191505b509250505060405180910390f35b3480156106e157600080fd5b506106ea6113fe565b6040518082815260200191505060405180910390f35b34801561070c57600080fd5b50610715611404565b005b34801561072357600080fd5b5061074c6004803603810190808035906020019092919080359060200190929190505050611499565b005b34801561075a57600080fd5b5061078360048036038101908080359060200190929190803590602001909291905050506116d9565b604051808573ffffffffffffffffffffffffffffffffffffffff1673ffffffffffffffffffffffffffffffffffffffff1681526020018473ffffffffffffffffffffffffffffffffffffffff1673ffffffffffffffffffffffffffffffffffffffff16815260200183815260200182815260200194505050505060405180910390f35b34801561081257600080fd5b50610831600480360381019080803590602001909291905050506117e8565b60405180831515151581526020018281526020019250505060405180910390f35b34801561085e57600080fd5b50610867611819565b6040518080602001828103825283818151815260200191508051906020019060200280838360005b838110156108aa57808201518184015260208101905061088f565b505050509050019250505060405180910390f35b6108c6611871565b005b3480156108d457600080fd5b506108fd60048036038101908080359060200190929190803590602001909291905050506118a0565b005b34801561090b57600080fd5b50610914611b8f565b604051808215151515815260200191505060405180910390f35b6000809054906101000a900473ffffffffffffffffffffffffffffffffffffffff1681565b600460009054906101000a900460ff1681565b606060088054806020026020016040519081016040528092919081815260200182805480156109b457602002820191906000526020600020905b8154815260200190600101908083116109a0575b5050505050905090565b60056020528060005260406000206000915054906101000a900460ff1681565b60008060008060076000888152602001908152602001600020600201600087815260200190815260200160002090506007600088815260200190815260200160002060000160009054906101000a900460ff168015610a5a57506005600087815260200190815260200160002060009054906101000a900460ff165b1515610a6557600080fd5b806000018054905085101515610a7a57600080fd5b8060000185815481101515610a8b57fe5b906000526020600020906003020160000160009054906101000a900473ffffffffffffffffffffffffffffffffffffffff168160000186815481101515610ace57fe5b9060005260206000209060030201600101548260000187815481101515610af157fe5b9060005260206000209060030201600201549350935093505093509350939050565b600080600080600080600760008981526020019081526020016000206002016000888152602001908152602001600020925082600001805490509150600082111515610b5e57600080fd5b8260010154905081811015610b8357610b788888836109de565b955095509550610b95565b60008060008191508090509550955095505b5050509250925092565b6000806000600160009054906101000a900473ffffffffffffffffffffffffffffffffffffffff1673ffffffffffffffffffffffffffffffffffffffff16630f5147176002546040518263ffffffff167c010000000000000000000000000000000000000000000000000000000002815260040180828152602001915050602060405180830381600087803b158015610c3757600080fd5b505af1158015610c4b573d6000803e3d6000fd5b505050506040513d6020811015610c6157600080fd5b81019080805190602001909291905050509150610c7c611b8f565b8015610c945750600460009054906101000a900460ff165b90508180610c9f5750805b9250505090565b600160009054906101000a900473ffffffffffffffffffffffffffffffffffffffff1681565b6000806007600085815260200190815260200160002090506005600084815260200190815260200160002060009054906101000a900460ff168015610d1f57508060000160009054906101000a900460ff165b1515610d2a57600080fd5b600073ffffffffffffffffffffffffffffffffffffffff1660076000868152602001908152602001600020600201600085815260200190815260200160002060020160009054906101000a900473ffffffffffffffffffffffffffffffffffffffff1673ffffffffffffffffffffffffffffffffffffffff16141591505092915050565b6000610db8610b9f565b1515610dc357600080fd5b3073ffffffffffffffffffffffffffffffffffffffff163190506000809054906101000a900473ffffffffffffffffffffffffffffffffffffffff1673ffffffffffffffffffffffffffffffffffffffff166108fc829081150290604051600060405180830381858888f19350505050158015610e44573d6000803e3d6000fd5b507f3d2a04f53164bedf9a8a46353305d6b2d2261410406df3b41f99ce6489dc003c816040518082815260200191505060405180910390a150565b6060600060606000806000806000610e9689611317565b1515610ea157600080fd5b600760008a81526020019081526020016000209650600680549050604051908082528060200260200182016040528015610eea5781602001602082028038833980820191505090505b509550600094505b600680549050851015610f8857600685815481101515610f0e57fe5b906000526020600020015493508660020160008581526020019081526020016000209250826001015491508260000182815481101515610f4a57fe5b9060005260206000209060030201600101549050808686815181101515610f6d57fe5b90602001906020020181815250508480600101955050610ef2565b85975050505050505050919050565b600160009054906101000a900473ffffffffffffffffffffffffffffffffffffffff1673ffffffffffffffffffffffffffffffffffffffff163373ffffffffffffffffffffffffffffffffffffffff16141515610ff357600080fd5b6005600082815260200190815260200160002060009054906101000a900460ff1615801561102e5750600460009054906101000a900460ff16155b151561103957600080fd5b60016005600083815260200190815260200160002060006101000a81548160ff021916908315150217905550600681908060018154018082558091505090600182039060005260206000200160009091929091909150555050565b6000600680549050905090565b600060076000868152602001908152602001600020600201600085815260200190815260200160002090506005600085815260200190815260200160002060009054906101000a900460ff1680156111495750600073ffffffffffffffffffffffffffffffffffffffff168160020160009054906101000a900473ffffffffffffffffffffffffffffffffffffffff1673ffffffffffffffffffffffffffffffffffffffff16145b151561115457600080fd5b6007600086815260200190815260200160002060000160009054906101000a900460ff16151561118357600080fd5b806000016060604051908101604052803373ffffffffffffffffffffffffffffffffffffffff168152602001848152602001858152509080600181540180825580915050906001820390600052602060002090600302016000909192909190915060008201518160000160006101000a81548173ffffffffffffffffffffffffffffffffffffffff021916908373ffffffffffffffffffffffffffffffffffffffff1602179055506020820151816001015560408201518160020155505050600181600001805490500385857fe176ecde2cccccb4849f78f5d9f8378a179f72033c2fc649f90820a324cfaa7160405160405180910390a45050505050565b60008060076000858152602001908152602001600020600201600084815260200190815260200160002090506007600085815260200190815260200160002060000160009054906101000a900460ff1680156112fb57506005600084815260200190815260200160002060009054906101000a900460ff165b151561130657600080fd5b806000018054905091505092915050565b6000806007600084815260200190815260200160002090508060000160009054906101000a900460ff16151561134c57600080fd5b600680549050816001015414915050919050565b60038054600181600116156101000203166002900480601f0160208091040260200160405190810160405280929190818152602001828054600181600116156101000203166002900480156113f65780601f106113cb576101008083540402835291602001916113f6565b820191906000526020600020905b8154815290600101906020018083116113d957829003601f168201915b505050505081565b60025481565b600160009054906101000a900473ffffffffffffffffffffffffffffffffffffffff1673ffffffffffffffffffffffffffffffffffffffff163373ffffffffffffffffffffffffffffffffffffffff1614151561146057600080fd5b600460009054906101000a900460ff1615151561147c57600080fd5b6001600460006101000a81548160ff021916908315150217905550565b600080600160009054906101000a900473ffffffffffffffffffffffffffffffffffffffff1673ffffffffffffffffffffffffffffffffffffffff1663facd743b336040518263ffffffff167c0100000000000000000000000000000000000000000000000000000000028152600401808273ffffffffffffffffffffffffffffffffffffffff1673ffffffffffffffffffffffffffffffffffffffff168152602001915050602060405180830381600087803b15801561155957600080fd5b505af115801561156d573d6000803e3d6000fd5b505050506040513d602081101561158357600080fd5b8101908080519060200190929190505050151561159f57600080fd5b60076000858152602001908152602001600020600201600084815260200190815260200160002091506005600084815260200190815260200160002060009054906101000a900460ff1680156116455750600073ffffffffffffffffffffffffffffffffffffffff168260020160009054906101000a900473ffffffffffffffffffffffffffffffffffffffff1673ffffffffffffffffffffffffffffffffffffffff16145b151561165057600080fd5b816000018054905061167060018460010154611beb90919063ffffffff16565b1115151561167d57600080fd5b8160010154905061169c60018360010154611beb90919063ffffffff16565b82600101819055508083857fb25faf3bb93b5105c8bc184c6af20f251543b1fdd93cd5c6f9f31b13c138b91a60405160405180910390a450505050565b6000806000806000806116ec8888610ccc565b15156116f757600080fd5b600760008981526020019081526020016000206002016000888152602001908152602001600020915081600101549050816000018181548110151561173857fe5b906000526020600020906003020160000160009054906101000a900473ffffffffffffffffffffffffffffffffffffffff168260020160009054906101000a900473ffffffffffffffffffffffffffffffffffffffff1683600001838154811015156117a057fe5b90600052602060002090600302016001015484600001848154811015156117c357fe5b9060005260206000209060030201600201549550955095509550505092959194509250565b60076020528060005260406000206000915090508060000160009054906101000a900460ff16908060010154905082565b6060600680548060200260200160405190810160405280929190818152602001828054801561186757602002820191906000526020600020905b815481526020019060010190808311611853575b5050505050905090565b347f2a89b2e3d580398d6dc2db5e0f336b52602bbaa51afa9bb5cdf59239cf0d2bea60405160405180910390a2565b6000806000806000600160009054906101000a900473ffffffffffffffffffffffffffffffffffffffff1673ffffffffffffffffffffffffffffffffffffffff1663facd743b336040518263ffffffff167c0100000000000000000000000000000000000000000000000000000000028152600401808273ffffffffffffffffffffffffffffffffffffffff1673ffffffffffffffffffffffffffffffffffffffff168152602001915050602060405180830381600087803b15801561196557600080fd5b505af1158015611979573d6000803e3d6000fd5b505050506040513d602081101561198f57600080fd5b810190808051906020019092919050505015156119ab57600080fd5b6007600088815260200190815260200160002094508460000160009054906101000a900460ff1615156119dd57600080fd5b84600201600087815260200190815260200160002093506005600087815260200190815260200160002060009054906101000a900460ff168015611a715750600073ffffffffffffffffffffffffffffffffffffffff168460020160009054906101000a900473ffffffffffffffffffffffffffffffffffffffff1673ffffffffffffffffffffffffffffffffffffffff16145b1515611a7c57600080fd5b83600001805490508460010154101515611a9557600080fd5b836000018460010154815481101515611aaa57fe5b906000526020600020906003020160000160009054906101000a900473ffffffffffffffffffffffffffffffffffffffff169250662386f26fc100009150611af28383611c0c565b9050801515611b0057611b86565b338460020160006101000a81548173ffffffffffffffffffffffffffffffffffffffff021916908373ffffffffffffffffffffffffffffffffffffffff160217905550846001016000815480929190600101919050555085877f6e0dd2be4d72dbf12213042a47491e605ec38b66d076e6f74e9f458373080e3760405160405180910390a35b50505050505050565b600080600090505b600880549050811015611be257611bc6600882815481101515611bb657fe5b9060005260206000200154611317565b1515611bd55760009150611be7565b8080600101915050611b97565b600191505b5090565b6000808284019050838110151515611c0257600080fd5b8091505092915050565b6000803073ffffffffffffffffffffffffffffffffffffffff163190506000811480611c3757508281105b15611c71577f5cc4d4e2397f909efdc05489f71c523c59913a6ffde292799faaca096635e16d60405160405180910390a160009150611d0b565b8373ffffffffffffffffffffffffffffffffffffffff166108fc849081150290604051600060405180830381858888f19350505050158015611cb7573d6000803e3d6000fd5b508373ffffffffffffffffffffffffffffffffffffffff167fbccbe05a3719eacef984f404dd2adff555adcc05fb72fb8b309bafbd462cd6f7846040518082815260200191505060405180910390a2600191505b50929150505600a165627a7a7230582085ff9708d163608aa1146f78b0d6f8d3503db621994ed3061ba87da947e709bb0029a165627a7a7230582034a65898d28a6909d295debd31d6fa2a67e187efd1aea667d46cbebeaf5acd5a0029",
  "source": "pragma solidity 0.4.24;\r\n\r\nimport \"openzeppelin-solidity/contracts/ownership/Ownable.sol\";\r\nimport \"openzeppelin-solidity/contracts/access/Roles.sol\";\r\nimport \"./Stream.sol\";\r\nimport \"./Escrow.sol\";\r\nimport \"./ManagerInterface.sol\";\r\n\r\n\r\n/// @title Stream manager contract \r\n/// @dev Stream smart contract factory with extra functionality.\r\n/// The contract has the following responsabilities:\r\n///  * manages the validator list\r\n///  * manages Stream aproval & creation \r\n///  * manages refunds\r\ncontract StreamManager is managerInterface, Ownable {\r\n  using Roles for Roles.Role;\r\n\r\n  struct StreamRequest {\r\n    bool approved;\r\n    bool refund;\r\n    bool ended;\r\n    address client;\r\n    address stream;\r\n    uint256[] chunks;\r\n    uint256[] bitrates;\r\n    uint256 streamId;\r\n    string RTMP;\r\n  }\r\n\r\n  Roles.Role private _validators;\r\n  mapping (uint256 => StreamRequest) public requests;\r\n\r\n  constructor() public {\r\n  }\r\n  \r\n  /// @notice Manager can add validators.\r\n  function addValidator(address v) public onlyOwner {\r\n    _validators.add(v);\r\n\r\n    emit ValidatorAdded(v);\r\n  }\r\n\r\n  /// @notice Manager can remove validators.\r\n  function removeValidator(address v) public onlyOwner {\r\n    _validators.remove(v);\r\n\r\n    emit ValidatorRemoved(v);\r\n  }\r\n\r\n  /// @notice Query whether a certain address is a validator.\r\n  /// @dev Also used by the stream contract onlyValidator modifier.\r\n  function isValidator(address v) public view returns (bool) {\r\n    return _validators.has(v);\r\n  }\r\n\r\n  /// @notice Users can request new streams (contracts).\r\n  /// @dev Each request is assigned an id based on the RTPM & client addres. \r\n  /// The stream id is generated later by the manager and is added when approveStreamCreation is called.\r\n  function requestStream(uint256 streamId, string RTMP, uint256[] bitrates) public returns (uint256) {    \r\n    require(requests[streamId].client == address(0));\r\n    require(bitrates.length != 0);\r\n\r\n    uint256[] memory chunks = new uint256[](0);\r\n    bool approved = false;\r\n    bool refund = false;\r\n    bool ended = false;\r\n    \r\n    requests[streamId] = StreamRequest(approved, refund, ended, msg.sender, address(0), chunks, bitrates, streamId, RTMP);    \r\n    emit StreamRequested(msg.sender, streamId);\r\n\r\n    return streamId;\r\n  }\r\n\r\n  /// @notice Manager can review stream requests, add extra data and approve them.\r\n  /// @dev Can provide an empty input chunk id array; these can be added later by calling addInputChunkId.\r\n  function approveStreamCreation(uint256 streamId, uint256[] chunks) public onlyOwner {\r\n    StreamRequest storage request = requests[streamId];\r\n    require(request.client != address(0));\r\n\r\n    request.chunks = chunks;\r\n    request.approved = true;\r\n\r\n    emit StreamApproved(streamId);\r\n  }\r\n\r\n  /// @notice After approval the client can create the stream. Also the client needs \r\n  /// to fund the escrow on creation.\r\n  function createStream(uint256 streamId) public payable returns (address) {\r\n    StreamRequest storage request = requests[streamId];\r\n    require(request.approved);\r\n    require(request.client == msg.sender);\r\n\r\n    Stream stream = new Stream(streamId, msg.sender, request.chunks, request.bitrates, request.RTMP);\r\n    stream.deposit.value(msg.value)();\r\n\r\n    request.stream = stream;\r\n\r\n    emit StreamCreated(stream, streamId);\r\n\r\n    return stream;\r\n  }\r\n  \r\n  /// @notice Pushes a new input chunk id to given stream\r\n  /// @dev Called by manager for now. Method is called as input chunk ids are created\r\n  function addInputChunkId(uint256 streamId, uint256 chunkId) public onlyOwner {\r\n    StreamRequest storage request = requests[streamId];\r\n    require(request.stream != address(0));\r\n\r\n    Stream stream = Stream(request.stream);\r\n    stream.addInputChunkId(chunkId);\r\n\r\n    emit InputChunkAdded(streamId, chunkId);\r\n  }\r\n\r\n  /// @notice Signals that a stream has ended and no more input chunks are available\r\n  /// @dev Called by manager or client(owner)\r\n  function endStream(uint256 streamId) public {\r\n    StreamRequest storage request = requests[streamId];\r\n\r\n    require(!request.ended);    \r\n    require(isOwner() || msg.sender == request.client);\r\n\r\n    Stream stream = Stream(request.stream);\r\n    stream.endStream();\r\n\r\n    request.ended = true;\r\n\r\n    emit StreamEnded(streamId, msg.sender);\r\n  }\r\n\r\n  /// @dev TODO: make refund a timelock maybe?\r\n\r\n  /// @notice Can check whether a client can refunds the coins from a stream contract.\r\n  /// @dev Called by stream/escrow contract.\r\n  function refundAllowed(uint256 streamId) public view returns (bool) {\r\n    return requests[streamId].refund;\r\n  }\r\n\r\n  /// @notice Manager can allow client refunds.\r\n  function allowRefund(uint256 streamId) public onlyOwner {\r\n    require(requests[streamId].client != address(0)); // check it exists\r\n\r\n    requests[streamId].refund = true;\r\n\r\n    emit RefundAllowed(streamId);\r\n  }\r\n\r\n  /// @notice Manager can revoke refund permission.\r\n  function revokeRefund(uint256 streamId) public onlyOwner {\r\n    require(requests[streamId].client != address(0)); // check it exists\r\n    \r\n    requests[streamId].refund = false;\r\n\r\n    emit RefundRevoked(streamId);\r\n  }\r\n\r\n  /// @dev events\r\n  \r\n  event StreamRequested(address indexed client, uint256 indexed streamId);\r\n  event StreamApproved(uint256 indexed streamId);\r\n  event StreamCreated(address indexed streamAddress, uint256 indexed streamId);\r\n\r\n  event ValidatorAdded(address indexed validator);\r\n  event ValidatorRemoved(address indexed validator);\r\n\r\n  event RefundAllowed(uint256 indexed streamId);\r\n  event RefundRevoked(uint256 indexed streamId);\r\n\r\n  event InputChunkAdded(uint256 indexed streamId, uint256 indexed chunkId);\r\n  event StreamEnded(uint256 indexed streamId, address indexed caller);\r\n}\r\n",
  "sourcePath": "D:/work/blockchain/alpha-streaming-contract/contracts/StreamManager.sol",
  "compiler": {
    "name": "solc",
    "version": "0.4.24+commit.e67f0147.Emscripten.clang"
  },
  "schemaVersion": "3.0.1",
  "updatedAt": "2019-02-28T06:54:35.038Z",
  "devdoc": {
    "methods": {
      "addInputChunkId(uint256,uint256)": {
        "details": "Called by manager for now. Method is called as input chunk ids are created\r"
      },
      "approveStreamCreation(uint256,uint256[])": {
        "details": "Can provide an empty input chunk id array; these can be added later by calling addInputChunkId.\r"
      },
      "endStream(uint256)": {
        "details": "Called by manager or client(owner)\r"
      },
      "isOwner()": {
        "return": "true if `msg.sender` is the owner of the contract."
      },
      "isValidator(address)": {
        "details": "Also used by the stream contract onlyValidator modifier.\r"
      },
      "owner()": {
        "return": "the address of the owner."
      },
      "refundAllowed(uint256)": {
        "details": "TODO: make refund a timelock maybe?\rCalled by stream/escrow contract.\r"
      },
      "renounceOwnership()": {
        "details": "Allows the current owner to relinquish control of the contract."
      },
      "requestStream(uint256,string,uint256[])": {
        "details": "Each request is assigned an id based on the RTPM & client addres. \r The stream id is generated later by the manager and is added when approveStreamCreation is called.\r"
      },
      "transferOwnership(address)": {
        "details": "Allows the current owner to transfer control of the contract to a newOwner.",
        "params": {
          "newOwner": "The address to transfer ownership to."
        }
      }
    },
    "title": "Stream manager contract \r"
  },
  "userdoc": {
    "methods": {
      "addInputChunkId(uint256,uint256)": {
        "notice": "Pushes a new input chunk id to given stream\r"
      },
      "addValidator(address)": {
        "notice": "Manager can add validators.\r"
      },
      "allowRefund(uint256)": {
        "notice": "Manager can allow client refunds.\r"
      },
      "approveStreamCreation(uint256,uint256[])": {
        "notice": "Manager can review stream requests, add extra data and approve them.\r"
      },
      "createStream(uint256)": {
        "notice": "After approval the client can create the stream. Also the client needs \r to fund the escrow on creation.\r"
      },
      "endStream(uint256)": {
        "notice": "Signals that a stream has ended and no more input chunks are available\r"
      },
      "isValidator(address)": {
        "notice": "Query whether a certain address is a validator.\r"
      },
      "refundAllowed(uint256)": {
        "notice": "Can check whether a client can refunds the coins from a stream contract.\r"
      },
      "removeValidator(address)": {
        "notice": "Manager can remove validators.\r"
      },
      "renounceOwnership()": {
        "notice": "Renouncing to ownership will leave the contract without an owner. It will not be possible to call the functions with the `onlyOwner` modifier anymore."
      },
      "requestStream(uint256,string,uint256[])": {
        "notice": "Users can request new streams (contracts).\r"
      },
      "revokeRefund(uint256)": {
        "notice": "Manager can revoke refund permission.\r"
      }
    }
  }
}