{
  "contractName": "Stream",
  "abi": [
    {
      "constant": true,
      "inputs": [],
      "name": "client",
      "outputs": [
        {
          "name": "",
          "type": "address"
        }
      ],
      "payable": false,
      "stateMutability": "view",
      "type": "function"
    },
    {
      "constant": true,
      "inputs": [],
      "name": "ended",
      "outputs": [
        {
          "name": "",
          "type": "bool"
        }
      ],
      "payable": false,
      "stateMutability": "view",
      "type": "function"
    },
    {
      "constant": true,
      "inputs": [
        {
          "name": "",
          "type": "uint256"
        }
      ],
      "name": "isChunk",
      "outputs": [
        {
          "name": "",
          "type": "bool"
        }
      ],
      "payable": false,
      "stateMutability": "view",
      "type": "function"
    },
    {
      "constant": true,
      "inputs": [],
      "name": "manager",
      "outputs": [
        {
          "name": "",
          "type": "address"
        }
      ],
      "payable": false,
      "stateMutability": "view",
      "type": "function"
    },
    {
      "constant": false,
      "inputs": [],
      "name": "refund",
      "outputs": [],
      "payable": false,
      "stateMutability": "nonpayable",
      "type": "function"
    },
    {
      "constant": true,
      "inputs": [],
      "name": "RTMP",
      "outputs": [
        {
          "name": "",
          "type": "string"
        }
      ],
      "payable": false,
      "stateMutability": "view",
      "type": "function"
    },
    {
      "constant": true,
      "inputs": [],
      "name": "id",
      "outputs": [
        {
          "name": "",
          "type": "uint256"
        }
      ],
      "payable": false,
      "stateMutability": "view",
      "type": "function"
    },
    {
      "constant": true,
      "inputs": [
        {
          "name": "",
          "type": "uint256"
        }
      ],
      "name": "outStreams",
      "outputs": [
        {
          "name": "required",
          "type": "bool"
        },
        {
          "name": "validatedChunks",
          "type": "uint256"
        }
      ],
      "payable": false,
      "stateMutability": "view",
      "type": "function"
    },
    {
      "constant": false,
      "inputs": [],
      "name": "deposit",
      "outputs": [],
      "payable": true,
      "stateMutability": "payable",
      "type": "function"
    },
    {
      "inputs": [
        {
          "name": "_id",
          "type": "uint256"
        },
        {
          "name": "client",
          "type": "address"
        },
        {
          "name": "chunks",
          "type": "uint256[]"
        },
        {
          "name": "bitrates",
          "type": "uint256[]"
        },
        {
          "name": "rtmp",
          "type": "string"
        }
      ],
      "payable": false,
      "stateMutability": "nonpayable",
      "type": "constructor"
    },
    {
      "anonymous": false,
      "inputs": [
        {
          "indexed": true,
          "name": "chunkId",
          "type": "uint256"
        },
        {
          "indexed": true,
          "name": "bitrate",
          "type": "uint256"
        },
        {
          "indexed": true,
          "name": "idx",
          "type": "uint256"
        }
      ],
      "name": "ChunkProofSubmited",
      "type": "event"
    },
    {
      "anonymous": false,
      "inputs": [
        {
          "indexed": true,
          "name": "bitrate",
          "type": "uint256"
        },
        {
          "indexed": true,
          "name": "chunkId",
          "type": "uint256"
        }
      ],
      "name": "ChunkProofValidated",
      "type": "event"
    },
    {
      "anonymous": false,
      "inputs": [
        {
          "indexed": true,
          "name": "bitrate",
          "type": "uint256"
        },
        {
          "indexed": true,
          "name": "chunkId",
          "type": "uint256"
        },
        {
          "indexed": true,
          "name": "idx",
          "type": "uint256"
        }
      ],
      "name": "ChunkProofScrapped",
      "type": "event"
    },
    {
      "anonymous": false,
      "inputs": [
        {
          "indexed": true,
          "name": "weiAmount",
          "type": "uint256"
        }
      ],
      "name": "Deposited",
      "type": "event"
    },
    {
      "anonymous": false,
      "inputs": [
        {
          "indexed": false,
          "name": "weiAmount",
          "type": "uint256"
        }
      ],
      "name": "Refunded",
      "type": "event"
    },
    {
      "anonymous": false,
      "inputs": [
        {
          "indexed": true,
          "name": "account",
          "type": "address"
        },
        {
          "indexed": false,
          "name": "weiAmount",
          "type": "uint256"
        }
      ],
      "name": "AccountFunded",
      "type": "event"
    },
    {
      "anonymous": false,
      "inputs": [],
      "name": "OutOfFunds",
      "type": "event"
    },
    {
      "constant": false,
      "inputs": [
        {
          "name": "chunkId",
          "type": "uint256"
        }
      ],
      "name": "addInputChunkId",
      "outputs": [],
      "payable": false,
      "stateMutability": "nonpayable",
      "type": "function"
    },
    {
      "constant": false,
      "inputs": [],
      "name": "endStream",
      "outputs": [],
      "payable": false,
      "stateMutability": "nonpayable",
      "type": "function"
    },
    {
      "constant": false,
      "inputs": [
        {
          "name": "bitrate",
          "type": "uint256"
        },
        {
          "name": "chunkId",
          "type": "uint256"
        },
        {
          "name": "proof",
          "type": "uint256"
        },
        {
          "name": "outChunkId",
          "type": "uint256"
        }
      ],
      "name": "submitProof",
      "outputs": [],
      "payable": false,
      "stateMutability": "nonpayable",
      "type": "function"
    },
    {
      "constant": false,
      "inputs": [
        {
          "name": "bitrate",
          "type": "uint256"
        },
        {
          "name": "chunkId",
          "type": "uint256"
        }
      ],
      "name": "validateProof",
      "outputs": [],
      "payable": false,
      "stateMutability": "nonpayable",
      "type": "function"
    },
    {
      "constant": false,
      "inputs": [
        {
          "name": "bitrate",
          "type": "uint256"
        },
        {
          "name": "chunkId",
          "type": "uint256"
        }
      ],
      "name": "scrapProof",
      "outputs": [],
      "payable": false,
      "stateMutability": "nonpayable",
      "type": "function"
    },
    {
      "constant": true,
      "inputs": [
        {
          "name": "bitrate",
          "type": "uint256"
        },
        {
          "name": "chunkId",
          "type": "uint256"
        }
      ],
      "name": "hasValidProof",
      "outputs": [
        {
          "name": "",
          "type": "bool"
        }
      ],
      "payable": false,
      "stateMutability": "view",
      "type": "function"
    },
    {
      "constant": true,
      "inputs": [
        {
          "name": "bitrate",
          "type": "uint256"
        },
        {
          "name": "chunkId",
          "type": "uint256"
        }
      ],
      "name": "getValidProof",
      "outputs": [
        {
          "name": "miner",
          "type": "address"
        },
        {
          "name": "validator",
          "type": "address"
        },
        {
          "name": "outputChunkId",
          "type": "uint256"
        },
        {
          "name": "proof",
          "type": "uint256"
        }
      ],
      "payable": false,
      "stateMutability": "view",
      "type": "function"
    },
    {
      "constant": true,
      "inputs": [
        {
          "name": "bitrate",
          "type": "uint256"
        },
        {
          "name": "chunkId",
          "type": "uint256"
        }
      ],
      "name": "getCandidateProof",
      "outputs": [
        {
          "name": "miner",
          "type": "address"
        },
        {
          "name": "outputChunkId",
          "type": "uint256"
        },
        {
          "name": "proof",
          "type": "uint256"
        }
      ],
      "payable": false,
      "stateMutability": "view",
      "type": "function"
    },
    {
      "constant": true,
      "inputs": [
        {
          "name": "bitrate",
          "type": "uint256"
        },
        {
          "name": "chunkId",
          "type": "uint256"
        }
      ],
      "name": "getProofCount",
      "outputs": [
        {
          "name": "",
          "type": "uint256"
        }
      ],
      "payable": false,
      "stateMutability": "view",
      "type": "function"
    },
    {
      "constant": true,
      "inputs": [
        {
          "name": "bitrate",
          "type": "uint256"
        },
        {
          "name": "chunkId",
          "type": "uint256"
        },
        {
          "name": "idx",
          "type": "uint256"
        }
      ],
      "name": "getProof",
      "outputs": [
        {
          "name": "miner",
          "type": "address"
        },
        {
          "name": "outputChunkId",
          "type": "uint256"
        },
        {
          "name": "proof",
          "type": "uint256"
        }
      ],
      "payable": false,
      "stateMutability": "view",
      "type": "function"
    },
    {
      "constant": true,
      "inputs": [],
      "name": "isTranscodingDone",
      "outputs": [
        {
          "name": "",
          "type": "bool"
        }
      ],
      "payable": false,
      "stateMutability": "view",
      "type": "function"
    },
    {
      "constant": true,
      "inputs": [
        {
          "name": "bitrate",
          "type": "uint256"
        }
      ],
      "name": "isBitrateTranscoded",
      "outputs": [
        {
          "name": "",
          "type": "bool"
        }
      ],
      "payable": false,
      "stateMutability": "view",
      "type": "function"
    },
    {
      "constant": true,
      "inputs": [],
      "name": "getBitrates",
      "outputs": [
        {
          "name": "",
          "type": "uint256[]"
        }
      ],
      "payable": false,
      "stateMutability": "view",
      "type": "function"
    },
    {
      "constant": true,
      "inputs": [],
      "name": "getInChunks",
      "outputs": [
        {
          "name": "",
          "type": "uint256[]"
        }
      ],
      "payable": false,
      "stateMutability": "view",
      "type": "function"
    },
    {
      "constant": true,
      "inputs": [],
      "name": "getInChunkCount",
      "outputs": [
        {
          "name": "",
          "type": "uint256"
        }
      ],
      "payable": false,
      "stateMutability": "view",
      "type": "function"
    },
    {
      "constant": true,
      "inputs": [
        {
          "name": "bitrate",
          "type": "uint256"
        }
      ],
      "name": "getOutChunks",
      "outputs": [
        {
          "name": "",
          "type": "uint256[]"
        }
      ],
      "payable": false,
      "stateMutability": "view",
      "type": "function"
    },
    {
      "constant": true,
      "inputs": [],
      "name": "refundAllowed",
      "outputs": [
        {
          "name": "",
          "type": "bool"
        }
      ],
      "payable": false,
      "stateMutability": "view",
      "type": "function"
    }
  ],
  "bytecode": "0x60806040523480156200001157600080fd5b50604051620020e2380380620020e2833981018060405281019080805190602001909291908051906020019092919080518201929190602001805182019291906020018051820192919050505060006200006a62000277565b85600073ffffffffffffffffffffffffffffffffffffffff168173ffffffffffffffffffffffffffffffffffffffff1614151515620000a857600080fd5b806000806101000a81548173ffffffffffffffffffffffffffffffffffffffff021916908373ffffffffffffffffffffffffffffffffffffffff160217905550508660028190555033600160006101000a81548173ffffffffffffffffffffffffffffffffffffffff021916908373ffffffffffffffffffffffffffffffffffffffff16021790555082600390805190602001906200014992919062000293565b508460069080519060200190620001629291906200031a565b50600091505b8451821015620001c45760016005600087858151811015156200018757fe5b90602001906020020151815260200190815260200160002060006101000a81548160ff021916908315150217905550818060010192505062000168565b8360089080519060200190620001dc9291906200031a565b50600091505b6008805490508210156200026a57600181600001901515908115158152505080600760006008858154811015156200021657fe5b9060005260206000200154815260200190815260200160002060008201518160000160006101000a81548160ff021916908315150217905550602082015181600101559050508180600101925050620001e2565b5050505050505062000394565b6040805190810160405280600015158152602001600081525090565b828054600181600116156101000203166002900490600052602060002090601f016020900481019282601f10620002d657805160ff191683800117855562000307565b8280016001018555821562000307579182015b8281111562000306578251825591602001919060010190620002e9565b5b5090506200031691906200036c565b5090565b82805482825590600052602060002090810192821562000359579160200282015b82811115620003585782518255916020019190600101906200033b565b5b5090506200036891906200036c565b5090565b6200039191905b808211156200038d57600081600090555060010162000373565b5090565b90565b611d3e80620003a46000396000f300608060405260043610610154576000357c0100000000000000000000000000000000000000000000000000000000900463ffffffff168063109e94cf1461015957806312fa6feb146101b057806314cc12d9146101df5780631bb62fc41461024b57806328cc413a146102905780632f750f201461031f5780633fa911ae146103a4578063481c6a75146103d35780634c0b715c1461042a578063590e1ae314610479578063623722981461049057806363baa2661461051257806373f93b2a1461053f578063747f75891461056a5780637b40855d146105b5578063963dce43146106005780639ee2190514610645578063af640d0f146106d5578063bb57a5ed14610700578063bbe58b0c14610717578063bf032f531461074e578063c5d0b14c14610806578063c617519314610852578063d0e30db0146108be578063d78e647f146108c8578063fc1028bc146108ff575b600080fd5b34801561016557600080fd5b5061016e61092e565b604051808273ffffffffffffffffffffffffffffffffffffffff1673ffffffffffffffffffffffffffffffffffffffff16815260200191505060405180910390f35b3480156101bc57600080fd5b506101c5610953565b604051808215151515815260200191505060405180910390f35b3480156101eb57600080fd5b506101f4610966565b6040518080602001828103825283818151815260200191508051906020019060200280838360005b8381101561023757808201518184015260208101905061021c565b505050509050019250505060405180910390f35b34801561025757600080fd5b50610276600480360381019080803590602001909291905050506109be565b604051808215151515815260200191505060405180910390f35b34801561029c57600080fd5b506102cf6004803603810190808035906020019092919080359060200190929190803590602001909291905050506109de565b604051808473ffffffffffffffffffffffffffffffffffffffff1673ffffffffffffffffffffffffffffffffffffffff168152602001838152602001828152602001935050505060405180910390f35b34801561032b57600080fd5b506103546004803603810190808035906020019092919080359060200190929190505050610b13565b604051808473ffffffffffffffffffffffffffffffffffffffff1673ffffffffffffffffffffffffffffffffffffffff168152602001838152602001828152602001935050505060405180910390f35b3480156103b057600080fd5b506103b9610b9f565b604051808215151515815260200191505060405180910390f35b3480156103df57600080fd5b506103e8610ca6565b604051808273ffffffffffffffffffffffffffffffffffffffff1673ffffffffffffffffffffffffffffffffffffffff16815260200191505060405180910390f35b34801561043657600080fd5b5061045f6004803603810190808035906020019092919080359060200190929190505050610ccc565b604051808215151515815260200191505060405180910390f35b34801561048557600080fd5b5061048e610dae565b005b34801561049c57600080fd5b506104bb60048036038101908080359060200190929190505050610e7f565b6040518080602001828103825283818151815260200191508051906020019060200280838360005b838110156104fe5780820151818401526020810190506104e3565b505050509050019250505060405180910390f35b34801561051e57600080fd5b5061053d60048036038101908080359060200190929190505050610f97565b005b34801561054b57600080fd5b50610554611094565b6040518082815260200191505060405180910390f35b34801561057657600080fd5b506105b3600480360381019080803590602001909291908035906020019092919080359060200190929190803590602001909291905050506110a1565b005b3480156105c157600080fd5b506105ea6004803603810190808035906020019092919080359060200190929190505050611282565b6040518082815260200191505060405180910390f35b34801561060c57600080fd5b5061062b60048036038101908080359060200190929190505050611317565b604051808215151515815260200191505060405180910390f35b34801561065157600080fd5b5061065a611360565b6040518080602001828103825283818151815260200191508051906020019080838360005b8381101561069a57808201518184015260208101905061067f565b50505050905090810190601f1680156106c75780820380516001836020036101000a031916815260200191505b509250505060405180910390f35b3480156106e157600080fd5b506106ea6113fe565b6040518082815260200191505060405180910390f35b34801561070c57600080fd5b50610715611404565b005b34801561072357600080fd5b5061074c6004803603810190808035906020019092919080359060200190929190505050611499565b005b34801561075a57600080fd5b5061078360048036038101908080359060200190929190803590602001909291905050506116d9565b604051808573ffffffffffffffffffffffffffffffffffffffff1673ffffffffffffffffffffffffffffffffffffffff1681526020018473ffffffffffffffffffffffffffffffffffffffff1673ffffffffffffffffffffffffffffffffffffffff16815260200183815260200182815260200194505050505060405180910390f35b34801561081257600080fd5b50610831600480360381019080803590602001909291905050506117e8565b60405180831515151581526020018281526020019250505060405180910390f35b34801561085e57600080fd5b50610867611819565b6040518080602001828103825283818151815260200191508051906020019060200280838360005b838110156108aa57808201518184015260208101905061088f565b505050509050019250505060405180910390f35b6108c6611871565b005b3480156108d457600080fd5b506108fd60048036038101908080359060200190929190803590602001909291905050506118a0565b005b34801561090b57600080fd5b50610914611b8f565b604051808215151515815260200191505060405180910390f35b6000809054906101000a900473ffffffffffffffffffffffffffffffffffffffff1681565b600460009054906101000a900460ff1681565b606060088054806020026020016040519081016040528092919081815260200182805480156109b457602002820191906000526020600020905b8154815260200190600101908083116109a0575b5050505050905090565b60056020528060005260406000206000915054906101000a900460ff1681565b60008060008060076000888152602001908152602001600020600201600087815260200190815260200160002090506007600088815260200190815260200160002060000160009054906101000a900460ff168015610a5a57506005600087815260200190815260200160002060009054906101000a900460ff165b1515610a6557600080fd5b806000018054905085101515610a7a57600080fd5b8060000185815481101515610a8b57fe5b906000526020600020906003020160000160009054906101000a900473ffffffffffffffffffffffffffffffffffffffff168160000186815481101515610ace57fe5b9060005260206000209060030201600101548260000187815481101515610af157fe5b9060005260206000209060030201600201549350935093505093509350939050565b600080600080600080600760008981526020019081526020016000206002016000888152602001908152602001600020925082600001805490509150600082111515610b5e57600080fd5b8260010154905081811015610b8357610b788888836109de565b955095509550610b95565b60008060008191508090509550955095505b5050509250925092565b6000806000600160009054906101000a900473ffffffffffffffffffffffffffffffffffffffff1673ffffffffffffffffffffffffffffffffffffffff16630f5147176002546040518263ffffffff167c010000000000000000000000000000000000000000000000000000000002815260040180828152602001915050602060405180830381600087803b158015610c3757600080fd5b505af1158015610c4b573d6000803e3d6000fd5b505050506040513d6020811015610c6157600080fd5b81019080805190602001909291905050509150610c7c611b8f565b8015610c945750600460009054906101000a900460ff165b90508180610c9f5750805b9250505090565b600160009054906101000a900473ffffffffffffffffffffffffffffffffffffffff1681565b6000806007600085815260200190815260200160002090506005600084815260200190815260200160002060009054906101000a900460ff168015610d1f57508060000160009054906101000a900460ff165b1515610d2a57600080fd5b600073ffffffffffffffffffffffffffffffffffffffff1660076000868152602001908152602001600020600201600085815260200190815260200160002060020160009054906101000a900473ffffffffffffffffffffffffffffffffffffffff1673ffffffffffffffffffffffffffffffffffffffff16141591505092915050565b6000610db8610b9f565b1515610dc357600080fd5b3073ffffffffffffffffffffffffffffffffffffffff163190506000809054906101000a900473ffffffffffffffffffffffffffffffffffffffff1673ffffffffffffffffffffffffffffffffffffffff166108fc829081150290604051600060405180830381858888f19350505050158015610e44573d6000803e3d6000fd5b507f3d2a04f53164bedf9a8a46353305d6b2d2261410406df3b41f99ce6489dc003c816040518082815260200191505060405180910390a150565b6060600060606000806000806000610e9689611317565b1515610ea157600080fd5b600760008a81526020019081526020016000209650600680549050604051908082528060200260200182016040528015610eea5781602001602082028038833980820191505090505b509550600094505b600680549050851015610f8857600685815481101515610f0e57fe5b906000526020600020015493508660020160008581526020019081526020016000209250826001015491508260000182815481101515610f4a57fe5b9060005260206000209060030201600101549050808686815181101515610f6d57fe5b90602001906020020181815250508480600101955050610ef2565b85975050505050505050919050565b600160009054906101000a900473ffffffffffffffffffffffffffffffffffffffff1673ffffffffffffffffffffffffffffffffffffffff163373ffffffffffffffffffffffffffffffffffffffff16141515610ff357600080fd5b6005600082815260200190815260200160002060009054906101000a900460ff1615801561102e5750600460009054906101000a900460ff16155b151561103957600080fd5b60016005600083815260200190815260200160002060006101000a81548160ff021916908315150217905550600681908060018154018082558091505090600182039060005260206000200160009091929091909150555050565b6000600680549050905090565b600060076000868152602001908152602001600020600201600085815260200190815260200160002090506005600085815260200190815260200160002060009054906101000a900460ff1680156111495750600073ffffffffffffffffffffffffffffffffffffffff168160020160009054906101000a900473ffffffffffffffffffffffffffffffffffffffff1673ffffffffffffffffffffffffffffffffffffffff16145b151561115457600080fd5b6007600086815260200190815260200160002060000160009054906101000a900460ff16151561118357600080fd5b806000016060604051908101604052803373ffffffffffffffffffffffffffffffffffffffff168152602001848152602001858152509080600181540180825580915050906001820390600052602060002090600302016000909192909190915060008201518160000160006101000a81548173ffffffffffffffffffffffffffffffffffffffff021916908373ffffffffffffffffffffffffffffffffffffffff1602179055506020820151816001015560408201518160020155505050600181600001805490500385857fe176ecde2cccccb4849f78f5d9f8378a179f72033c2fc649f90820a324cfaa7160405160405180910390a45050505050565b60008060076000858152602001908152602001600020600201600084815260200190815260200160002090506007600085815260200190815260200160002060000160009054906101000a900460ff1680156112fb57506005600084815260200190815260200160002060009054906101000a900460ff165b151561130657600080fd5b806000018054905091505092915050565b6000806007600084815260200190815260200160002090508060000160009054906101000a900460ff16151561134c57600080fd5b600680549050816001015414915050919050565b60038054600181600116156101000203166002900480601f0160208091040260200160405190810160405280929190818152602001828054600181600116156101000203166002900480156113f65780601f106113cb576101008083540402835291602001916113f6565b820191906000526020600020905b8154815290600101906020018083116113d957829003601f168201915b505050505081565b60025481565b600160009054906101000a900473ffffffffffffffffffffffffffffffffffffffff1673ffffffffffffffffffffffffffffffffffffffff163373ffffffffffffffffffffffffffffffffffffffff1614151561146057600080fd5b600460009054906101000a900460ff1615151561147c57600080fd5b6001600460006101000a81548160ff021916908315150217905550565b600080600160009054906101000a900473ffffffffffffffffffffffffffffffffffffffff1673ffffffffffffffffffffffffffffffffffffffff1663facd743b336040518263ffffffff167c0100000000000000000000000000000000000000000000000000000000028152600401808273ffffffffffffffffffffffffffffffffffffffff1673ffffffffffffffffffffffffffffffffffffffff168152602001915050602060405180830381600087803b15801561155957600080fd5b505af115801561156d573d6000803e3d6000fd5b505050506040513d602081101561158357600080fd5b8101908080519060200190929190505050151561159f57600080fd5b60076000858152602001908152602001600020600201600084815260200190815260200160002091506005600084815260200190815260200160002060009054906101000a900460ff1680156116455750600073ffffffffffffffffffffffffffffffffffffffff168260020160009054906101000a900473ffffffffffffffffffffffffffffffffffffffff1673ffffffffffffffffffffffffffffffffffffffff16145b151561165057600080fd5b816000018054905061167060018460010154611beb90919063ffffffff16565b1115151561167d57600080fd5b8160010154905061169c60018360010154611beb90919063ffffffff16565b82600101819055508083857fb25faf3bb93b5105c8bc184c6af20f251543b1fdd93cd5c6f9f31b13c138b91a60405160405180910390a450505050565b6000806000806000806116ec8888610ccc565b15156116f757600080fd5b600760008981526020019081526020016000206002016000888152602001908152602001600020915081600101549050816000018181548110151561173857fe5b906000526020600020906003020160000160009054906101000a900473ffffffffffffffffffffffffffffffffffffffff168260020160009054906101000a900473ffffffffffffffffffffffffffffffffffffffff1683600001838154811015156117a057fe5b90600052602060002090600302016001015484600001848154811015156117c357fe5b9060005260206000209060030201600201549550955095509550505092959194509250565b60076020528060005260406000206000915090508060000160009054906101000a900460ff16908060010154905082565b6060600680548060200260200160405190810160405280929190818152602001828054801561186757602002820191906000526020600020905b815481526020019060010190808311611853575b5050505050905090565b347f2a89b2e3d580398d6dc2db5e0f336b52602bbaa51afa9bb5cdf59239cf0d2bea60405160405180910390a2565b6000806000806000600160009054906101000a900473ffffffffffffffffffffffffffffffffffffffff1673ffffffffffffffffffffffffffffffffffffffff1663facd743b336040518263ffffffff167c0100000000000000000000000000000000000000000000000000000000028152600401808273ffffffffffffffffffffffffffffffffffffffff1673ffffffffffffffffffffffffffffffffffffffff168152602001915050602060405180830381600087803b15801561196557600080fd5b505af1158015611979573d6000803e3d6000fd5b505050506040513d602081101561198f57600080fd5b810190808051906020019092919050505015156119ab57600080fd5b6007600088815260200190815260200160002094508460000160009054906101000a900460ff1615156119dd57600080fd5b84600201600087815260200190815260200160002093506005600087815260200190815260200160002060009054906101000a900460ff168015611a715750600073ffffffffffffffffffffffffffffffffffffffff168460020160009054906101000a900473ffffffffffffffffffffffffffffffffffffffff1673ffffffffffffffffffffffffffffffffffffffff16145b1515611a7c57600080fd5b83600001805490508460010154101515611a9557600080fd5b836000018460010154815481101515611aaa57fe5b906000526020600020906003020160000160009054906101000a900473ffffffffffffffffffffffffffffffffffffffff169250662386f26fc100009150611af28383611c0c565b9050801515611b0057611b86565b338460020160006101000a81548173ffffffffffffffffffffffffffffffffffffffff021916908373ffffffffffffffffffffffffffffffffffffffff160217905550846001016000815480929190600101919050555085877f6e0dd2be4d72dbf12213042a47491e605ec38b66d076e6f74e9f458373080e3760405160405180910390a35b50505050505050565b600080600090505b600880549050811015611be257611bc6600882815481101515611bb657fe5b9060005260206000200154611317565b1515611bd55760009150611be7565b8080600101915050611b97565b600191505b5090565b6000808284019050838110151515611c0257600080fd5b8091505092915050565b6000803073ffffffffffffffffffffffffffffffffffffffff163190506000811480611c3757508281105b15611c71577f5cc4d4e2397f909efdc05489f71c523c59913a6ffde292799faaca096635e16d60405160405180910390a160009150611d0b565b8373ffffffffffffffffffffffffffffffffffffffff166108fc849081150290604051600060405180830381858888f19350505050158015611cb7573d6000803e3d6000fd5b508373ffffffffffffffffffffffffffffffffffffffff167fbccbe05a3719eacef984f404dd2adff555adcc05fb72fb8b309bafbd462cd6f7846040518082815260200191505060405180910390a2600191505b50929150505600a165627a7a7230582085ff9708d163608aa1146f78b0d6f8d3503db621994ed3061ba87da947e709bb0029",
  "source": "pragma solidity 0.4.24;\r\n\r\nimport \"openzeppelin-solidity/contracts/math/SafeMath.sol\";\r\nimport \"./ManagerInterface.sol\";\r\nimport \"./Escrow.sol\";\r\n\r\n/// @title Stream smart contract \r\n/// @dev Represents a video transcode job - is created by a client.\r\n/// The video is split in chunks; miners submit proofs for each chunk for each bitrate.\r\n/// Validators approve miner proofs.\r\n/// Because the solidity 0.4.24 compiler does not support ABI encoding for \r\n/// structs(except with the experimental flag which casts all the values to strings)\r\n/// we sometimes return the 'destructured' objects.\r\n/// The contract holds a list of input chunk ids (_inChunkIds) and of requested bitrates (_bitrates).\r\n/// Each requested bitrate has an Outstream and each Outstream stores a dictionary of \r\n/// proof queues mapped for each input chunk. The proof queues store the proofs & ouput chunks\r\n/// submited by miners.\r\n\r\ncontract Stream is Escrow {\r\n  using SafeMath for uint256;\r\n\r\n  struct Proof {\r\n    address miner;\r\n    uint256 outputChunkId;\r\n    uint256 proof;\r\n  }\r\n\r\n  /// @notice Simple queue-like data structure used for proof submission and validation.\r\n  /// @dev Head is used to determine FIFO order for miner proof submission & validation.\r\n  /// New proofs are pushed at the back of the array. Head increments when a proof discarded\r\n  /// and it points at oldest proof (first to be validated).\r\n  /// A proof is valid if ChunkProofQueue.validator != address(0).\r\n  /// The proof is found at ChunkProofQueue.proofs[ChunkProofQueue.head]\r\n  struct ChunkProofQueue {\r\n    Proof[] proofs;\r\n    uint256 head;\r\n    address validator;\r\n  }\r\n\r\n  /// @title OutStream\r\n  /// @dev The struct holds a map from chunkId to proof queues.\r\n  /// There is one OutStream per bitrate requested by client.\r\n  struct OutStream {\r\n    bool required;\r\n    uint256 validatedChunks;\r\n    mapping (uint256 => ChunkProofQueue) proofQueues;\r\n  }\r\n\r\n  address public manager;\r\n  uint256 public id;\r\n  string public RTMP;\r\n  bool public ended;\r\n\r\n  mapping (uint256 => bool) public isChunk;\r\n  uint256[] private _inChunkIds;\r\n\r\n  mapping (uint256 => OutStream) public outStreams;\r\n  uint256[] private _bitrates;\r\n\r\n  /// @notice \r\n  /// @dev \r\n  constructor(uint256 _id, address client, uint256[] chunks, uint256[] bitrates, string rtmp) Escrow(client) public {\r\n    id = _id;\r\n    manager = msg.sender;\r\n    RTMP = rtmp;\r\n\r\n    _inChunkIds = chunks;\r\n    for(uint i = 0; i < chunks.length; i++) {\r\n      isChunk[chunks[i]] = true;\r\n    }\r\n\r\n    _bitrates = bitrates;\r\n    for(i = 0; i < _bitrates.length; i++) {\r\n      OutStream memory outStream;\r\n      outStream.required = true;\r\n\r\n      outStreams[_bitrates[i]] = outStream;\r\n    }\r\n  }\r\n\r\n  /// @notice Manager can add more input chunkIds as they become available\r\n  /// @dev Reverts if chunk already exists\r\n  function addInputChunkId(uint256 chunkId) public onlyManager {\r\n    require(!isChunk[chunkId] && !ended);\r\n\r\n    isChunk[chunkId] = true;\r\n    _inChunkIds.push(chunkId);\r\n  }\r\n\r\n  /// @notice Signals that the input stream has ended and no more input chunks are available\r\n  /// @dev Called by manager contract\r\n  function endStream() public onlyManager {\r\n    require(!ended);\r\n\r\n    ended = true;\r\n  }\r\n\r\n  /// @notice Miners use the method to submit proofs & output chunkIds\r\n  /// @dev Will not allow new proof submission if already validated, i.e. proofQueue.validator != address(0)\r\n  function submitProof(uint256 bitrate, uint256 chunkId, uint256 proof, uint256 outChunkId) public {\r\n    ChunkProofQueue storage proofQueue = outStreams[bitrate].proofQueues[chunkId];\r\n    require(isChunk[chunkId] && proofQueue.validator == address(0));\r\n    require(outStreams[bitrate].required);\r\n\r\n    proofQueue.proofs.push(Proof(msg.sender, outChunkId, proof));\r\n\r\n    emit ChunkProofSubmited(chunkId, bitrate, proofQueue.proofs.length - 1);\r\n  }\r\n\r\n  /// @notice Validators use the method to validate the first proof available in the queue.\r\n  /// @dev Requires that we have proofs.\r\n  /// At the moment we issue a reward of 0.01 VID until we have a wattage/reward calculation.\r\n  /// alpha: we added a call to withdraw to actually transfer funds to miner when validating\r\n  /// (push payment).\r\n  function validateProof(uint256 bitrate, uint256 chunkId) public onlyValidator {\r\n    OutStream storage outStream = outStreams[bitrate];\r\n    require(outStream.required);\r\n\r\n    ChunkProofQueue storage proofQueue = outStream.proofQueues[chunkId];\r\n    require(isChunk[chunkId] && proofQueue.validator == address(0));\r\n    require(proofQueue.head < proofQueue.proofs.length);\r\n\r\n    address miner = proofQueue.proofs[proofQueue.head].miner;\r\n\r\n    uint256 amount = 1e16;\r\n    bool funded = fundAccount(miner, amount);\r\n    if(!funded) return;\r\n\r\n    proofQueue.validator = msg.sender;\r\n    outStream.validatedChunks++;\r\n\r\n    emit ChunkProofValidated(bitrate, chunkId);\r\n  }\r\n\r\n  /// @notice Validators can scrap the first proof available in the queue if they consider so.\r\n  /// @dev This will increment the proofs queue head to point to the next proof.\r\n  /// This we would decrease miner reputation.\r\n  function scrapProof(uint256 bitrate, uint256 chunkId) public onlyValidator {\r\n    ChunkProofQueue storage proofQueue = outStreams[bitrate].proofQueues[chunkId];\r\n    require(isChunk[chunkId] && proofQueue.validator == address(0));\r\n    require(proofQueue.head.add(1) <= proofQueue.proofs.length);\r\n\r\n    uint256 idx = proofQueue.head;\r\n    proofQueue.head = proofQueue.head.add(1); \r\n\r\n    emit ChunkProofScrapped(bitrate, chunkId, idx);\r\n  }\r\n\r\n  /// @notice Returns true if the chunk has been validated\r\n  /// @dev Reverts if bitrate ore chunk id are wrong/not required.\r\n  function hasValidProof(uint256 bitrate, uint256 chunkId) public view returns (bool) {\r\n    OutStream storage outStream = outStreams[bitrate];\r\n    require(isChunk[chunkId] && outStream.required);\r\n\r\n    return outStreams[bitrate].proofQueues[chunkId].validator != address(0);\r\n  }\r\n\r\n  /// @notice Returns the proof of a validated chunk.\r\n  /// @dev Requires that the proof has been validated.\r\n  function getValidProof(uint256 bitrate, uint256 chunkId) public view \r\n                                        returns (address miner,\r\n                                                address validator,\r\n                                                uint256 outputChunkId,\r\n                                                uint256 proof) {\r\n    require(hasValidProof(bitrate, chunkId));\r\n    \r\n    ChunkProofQueue storage proofQueue = outStreams[bitrate].proofQueues[chunkId];\r\n\r\n    uint256 idx = proofQueue.head;\r\n    return (proofQueue.proofs[idx].miner, proofQueue.validator, proofQueue.proofs[idx].outputChunkId, proofQueue.proofs[idx].proof);\r\n  }\r\n\r\n  /// @notice Returns the first proof canditate for validation/scraping.\r\n  /// @dev Validators should use this to query the current proof canditate before validating it.\r\n  /// Returns object with '0' values  if no candidate proof, i.e.\r\n  /// all submited proof have been scrapped\r\n  /// Reverts if if no proof yet submited or idx out of bounds\r\n  function getCandidateProof(uint256 bitrate, uint256 chunkId) public view \r\n                                        returns (address miner,\r\n                                                uint256 outputChunkId,\r\n                                                uint256 proof) {\r\n    ChunkProofQueue storage proofQueue = outStreams[bitrate].proofQueues[chunkId];\r\n    uint256 count = proofQueue.proofs.length;\r\n    require(count > 0);\r\n\r\n    uint256 idx = proofQueue.head;\r\n\r\n    if(idx < count ) {\r\n      return getProof(bitrate, chunkId, idx);\r\n    }\r\n\r\n    return (address(0), 0, 0);\r\n  }\r\n\r\n  /// @notice Query proof count for given chunk&bitrate.\r\n  /// @dev Reverts if bitrate or chunk id do not exist.\r\n  function getProofCount(uint256 bitrate, uint256 chunkId) public view returns (uint256) {\r\n    ChunkProofQueue storage proofQueue = outStreams[bitrate].proofQueues[chunkId];\r\n    require(outStreams[bitrate].required && isChunk[chunkId]);\r\n\r\n    return proofQueue.proofs.length;\r\n  }\r\n\r\n  /// @notice Returns any proof that has been submited for the given chunk & bitrate from the\r\n  /// proof queue. \r\n  /// @dev Can be used to inspect the proof queue for a given chunk & bitrate.\r\n  /// Reverts if bitrate or chunk id do not exist or if idx goes out of range.\r\n  function getProof(uint256 bitrate, uint256 chunkId, uint256 idx) public view \r\n                                        returns (address miner,\r\n                                                uint256 outputChunkId,\r\n                                                uint256 proof) {\r\n    ChunkProofQueue storage proofQueue = outStreams[bitrate].proofQueues[chunkId];\r\n\r\n    require(outStreams[bitrate].required && isChunk[chunkId]);\r\n    require(idx < proofQueue.proofs.length);\r\n\r\n    return (proofQueue.proofs[idx].miner, proofQueue.proofs[idx].outputChunkId, proofQueue.proofs[idx].proof );\r\n  }\r\n\r\n  /// @notice Returns true if the stream has valid proofs for every chunk for every bitrate\r\n  function isTranscodingDone() public view returns (bool) {\r\n    for(uint i = 0; i < _bitrates.length; i++) {\r\n      if(!isBitrateTranscoded(_bitrates[i]))\r\n        return false;\r\n    }\r\n    return true;\r\n  }\r\n  \r\n  /// @notice Returns true if the bitrate has valid proofs for every chunk.\r\n  /// @dev Reverts if bitrate is wrong/not required.\r\n  function isBitrateTranscoded(uint256 bitrate) public view returns (bool) {\r\n    OutStream storage outStream = outStreams[bitrate];\r\n    require(outStream.required);\r\n\r\n    return outStream.validatedChunks == _inChunkIds.length;\r\n  }\r\n\r\n  /// @notice Returns the bitrates array.\r\n  function getBitrates() public view returns (uint256[]) {\r\n    return _bitrates;\r\n  }\r\n\r\n  /// @notice Returns the input chunk ids array.\r\n  function getInChunks() public view returns (uint256[]) {\r\n    return _inChunkIds;\r\n  }\r\n\r\n  /// @notice Returns the number of chunks the input stream has.\r\n  function getInChunkCount() public view returns (uint256) {\r\n    return _inChunkIds.length;\r\n  }\r\n\r\n  /// @notice Returns all output chunk ids for the given bitrate only.\r\n  function getOutChunks(uint256 bitrate) public view returns (uint256[]) {\r\n    require(isBitrateTranscoded(bitrate));\r\n    OutStream storage outStream = outStreams[bitrate];\r\n\r\n    uint256[] memory outputChunks = new uint256[](_inChunkIds.length);\r\n\r\n    for(uint i = 0; i < _inChunkIds.length; i++) {\r\n      uint256 chunkId = _inChunkIds[i];\r\n      ChunkProofQueue storage proofQueue = outStream.proofQueues[chunkId];\r\n      uint256 head = proofQueue.head;\r\n      uint256 outChunkid = proofQueue.proofs[head].outputChunkId;\r\n\r\n      outputChunks[i] = outChunkid;\r\n    }\r\n\r\n    return outputChunks;\r\n  }\r\n\r\n  /// @notice Returns true if the manager allows the refund (special case) or if the stream\r\n  /// has ended and all the chunks have been transcoder\r\n  /// @dev Inherited from Escrow.\r\n  function refundAllowed() public view returns (bool) {\r\n    bool managerPermission = managerInterface(manager).refundAllowed(id);\r\n    bool streamDone = isTranscodingDone() && ended;\r\n\r\n    return managerPermission || streamDone;\r\n  }\r\n\r\n  /// @notice Modifier for methods only callable by validators\r\n  /// @dev The stream manager holds & manages the validator list.\r\n  modifier onlyValidator() {\r\n    require(managerInterface(manager).isValidator(msg.sender));\r\n    _;\r\n  }\r\n\r\n  /// @notice Modifier for methods only callable by the manager contract\r\n  modifier onlyManager() {\r\n    require(msg.sender == manager);\r\n    _;\r\n  }\r\n\r\n  /// @dev Events\r\n  event ChunkProofSubmited(uint256 indexed chunkId, uint256 indexed bitrate, uint256 indexed idx);\r\n  event ChunkProofValidated(uint256 indexed bitrate, uint256 indexed chunkId);\r\n  event ChunkProofScrapped(uint256 indexed bitrate, uint256 indexed chunkId, uint256 indexed idx);\r\n}\r\n",
  "sourcePath": "D:\\work\\blockchain\\alpha-streaming-contract\\contracts\\Stream.sol",
  "compiler": {
    "name": "solc",
    "version": "0.4.24+commit.e67f0147.Emscripten.clang"
  },
  "schemaVersion": "3.0.1",
  "updatedAt": "2019-02-28T06:54:35.031Z",
  "devdoc": {
    "methods": {
      "addInputChunkId(uint256)": {
        "details": "Reverts if chunk already exists\r"
      },
      "deposit()": {
        "details": "Anyone that calls the method funds the client account.\r"
      },
      "endStream()": {
        "details": "Called by manager contract\r"
      },
      "getCandidateProof(uint256,uint256)": {
        "details": "Validators should use this to query the current proof canditate before validating it.\r Returns object with '0' values  if no candidate proof, i.e.\r all submited proof have been scrapped\r Reverts if if no proof yet submited or idx out of bounds\r"
      },
      "getProof(uint256,uint256,uint256)": {
        "details": "Can be used to inspect the proof queue for a given chunk & bitrate.\r Reverts if bitrate or chunk id do not exist or if idx goes out of range.\r"
      },
      "getProofCount(uint256,uint256)": {
        "details": "Reverts if bitrate or chunk id do not exist.\r"
      },
      "getValidProof(uint256,uint256)": {
        "details": "Requires that the proof has been validated.\r"
      },
      "hasValidProof(uint256,uint256)": {
        "details": "Reverts if bitrate ore chunk id are wrong/not required.\r"
      },
      "isBitrateTranscoded(uint256)": {
        "details": "Reverts if bitrate is wrong/not required.\r"
      },
      "refund()": {
        "details": "\r"
      },
      "refundAllowed()": {
        "details": "Inherited from Escrow.\r"
      },
      "scrapProof(uint256,uint256)": {
        "details": "This will increment the proofs queue head to point to the next proof.\r This we would decrease miner reputation.\r"
      },
      "submitProof(uint256,uint256,uint256,uint256)": {
        "details": "Will not allow new proof submission if already validated, i.e. proofQueue.validator != address(0)\r"
      },
      "validateProof(uint256,uint256)": {
        "details": "Requires that we have proofs.\r At the moment we issue a reward of 0.01 VID until we have a wattage/reward calculation.\r alpha: we added a call to withdraw to actually transfer funds to miner when validating\r (push payment).\r"
      }
    },
    "title": "Stream smart contract \r"
  },
  "userdoc": {
    "methods": {
      "addInputChunkId(uint256)": {
        "notice": "Manager can add more input chunkIds as they become available\r"
      },
      "deposit()": {
        "notice": "Deposit an amount to escrow on behalf of the client account.\r"
      },
      "endStream()": {
        "notice": "Signals that the input stream has ended and no more input chunks are available\r"
      },
      "getBitrates()": {
        "notice": "Returns the bitrates array.\r"
      },
      "getCandidateProof(uint256,uint256)": {
        "notice": "Returns the first proof canditate for validation/scraping.\r"
      },
      "getInChunkCount()": {
        "notice": "Returns the number of chunks the input stream has.\r"
      },
      "getInChunks()": {
        "notice": "Returns the input chunk ids array.\r"
      },
      "getOutChunks(uint256)": {
        "notice": "Returns all output chunk ids for the given bitrate only.\r"
      },
      "getProof(uint256,uint256,uint256)": {
        "notice": "Returns any proof that has been submited for the given chunk & bitrate from the\r proof queue. \r"
      },
      "getProofCount(uint256,uint256)": {
        "notice": "Query proof count for given chunk&bitrate.\r"
      },
      "getValidProof(uint256,uint256)": {
        "notice": "Returns the proof of a validated chunk.\r"
      },
      "hasValidProof(uint256,uint256)": {
        "notice": "Returns true if the chunk has been validated\r"
      },
      "isBitrateTranscoded(uint256)": {
        "notice": "Returns true if the bitrate has valid proofs for every chunk.\r"
      },
      "isTranscodingDone()": {
        "notice": "Returns true if the stream has valid proofs for every chunk for every bitrate\r"
      },
      "refund()": {
        "notice": "Cand refund the remaining funds to the client that requested the stream .\r if allowed by manager. \r"
      },
      "refundAllowed()": {
        "notice": "Returns true if the manager allows the refund (special case) or if the stream\r has ended and all the chunks have been transcoder\r"
      },
      "scrapProof(uint256,uint256)": {
        "notice": "Validators can scrap the first proof available in the queue if they consider so.\r"
      },
      "submitProof(uint256,uint256,uint256,uint256)": {
        "notice": "Miners use the method to submit proofs & output chunkIds\r"
      },
      "validateProof(uint256,uint256)": {
        "notice": "Validators use the method to validate the first proof available in the queue.\r"
      }
    }
  }
}